:020000040800F2
:1000000000500020D50A0008F10F0008F30F000887
:10001000F50F0008F70F0008F90F000800000000B6
:10002000000000000000000000000000FB0F0008BE
:10003000FD0F000800000000FF0F0008011000087D
:10004000190B0008190B0008190B0008190B000800
:10005000190B0008190B0008190B0008190B0008F0
:10006000190B0008190B0008190B0008190B0008E0
:10007000190B0008190B0008190B0008190B0008D0
:10008000190B0008190B0008190B0008190B0008C0
:10009000190B0008190B0008190B0008190B0008B0
:1000A000190B0008190B0008190B0008190B0008A0
:1000B000190B0008190B0008190B0008190B000890
:1000C000190B0008190B0008190B0008190B000880
:1000D000190B0008190B0008190B0008190B000870
:1000E000190B0008190B0008190B0008000000008C
:1000F0000000000000000000000000000000000000
:0C01000000000000000000005FF808F1A3
:10011000034613F8012B002AFBD1181A0138704747
:1001200081F0004102E000BF83F0004330B54FEAA8
:1001300041044FEA430594EA050F08BF90EA020F15
:100140001FBF54EA000C55EA020C7FEA645C7FEAA8
:10015000655C00F0E2804FEA5454D4EB5555B8BFCB
:100160006D420CDD2C4480EA020281EA030382EA3C
:10017000000083EA010180EA020281EA0303362DCE
:1001800088BF30BD11F0004F4FEA01314FF4801CA1
:100190004CEA113102D0404261EB410113F0004FB3
:1001A0004FEA03334CEA133302D0524263EB43036A
:1001B00094EA050F00F0A780A4F10104D5F1200E08
:1001C0000DDB02FA0EFC22FA05F2801841F1000163
:1001D00003FA0EF2801843FA05F359410EE0A5F137
:1001E00020050EF1200E012A03FA0EFC28BF4CF068
:1001F000020C43FA05F3C01851EBE37101F000451E
:1002000007D54FF0000EDCF1000C7EEB00006EEB2A
:100210000101B1F5801F1BD3B1F5001F0CD34908B4
:100220005FEA30004FEA3C0C04F101044FEA44520B
:1002300012F5800F80F09A80BCF1004F08BF5FEA92
:10024000500C50F1000041EB045141EA050130BD72
:100250005FEA4C0C404141EB0101013C28BFB1F584
:10026000801FE9D291F0000F04BF01460020B1FACF
:1002700081F308BF2033A3F10B03B3F120020CDAA2
:100280000C3208DD02F1140CC2F10C0201FA0CF080
:1002900021FA02F10CE002F11402D8BFC2F1200CE5
:1002A00001FA02F120FA0CFCDCBF41EA0C0190409B
:1002B000E41AA2BF01EB0451294330BD6FEA0404E4
:1002C0001F3C1CDA0C340EDC04F11404C4F12002CF
:1002D00020FA04F001FA02F340EA030021FA04F3E1
:1002E00045EA030130BDC4F10C04C4F1200220FA38
:1002F00002F001FA04F340EA0300294630BD21FA76
:1003000004F0294630BD94F0000F83F4801306BF3B
:1003100081F480110134013D4EE77FEA645C18BF2F
:100320007FEA655C29D094EA050F08BF90EA020FC6
:1003300005D054EA000C04BF1946104630BD91EABE
:10034000030F1EBF0021002030BD5FEA545C05D1C1
:100350004000494128BF41F0004130BD14F5800400
:100360003CBF01F5801130BD01F0004545F0FE4174
:1003700041F470014FF0000030BD7FEA645C1ABFA9
:10038000194610467FEA655C1CBF0B46024650EAE0
:10039000013406BF52EA033591EA030F41F400210C
:1003A00030BD00BF90F0000F04BF0021704730B592
:1003B0004FF4806404F132044FF000054FF0000167
:1003C00050E700BF90F0000F04BF0021704730B528
:1003D0004FF4806404F1320410F0004548BF4042FD
:1003E0004FF000013EE700BF42004FEAE2014FEA52
:1003F00031014FEA02701FBF12F07F4393F07F4F2D
:1004000081F06051704732F07F4208BF704793F02F
:100410007F4F04BF41F40021704730B54FF4607442
:1004200001F0004521F000411CE700BF50EA010245
:1004300008BF704730B54FF000050AE050EA0102EE
:1004400008BF704730B511F0004502D5404261EB5E
:1004500041014FF4806404F132045FEA915C3FF49F
:10046000D8AE4FF003025FEADC0C18BF03325FEA3C
:10047000DC0C18BF033202EBDC02C2F1200300FAED
:1004800003FC20FA02F001FA03FE40EA0E0021FA12
:1004900002F11444BDE600BF70B54FF0FF0C4CF400
:1004A000E06C1CEA11541DBF1CEA135594EA0C0FB2
:1004B00095EA0C0F00F0DEF82C4481EA030621EAED
:1004C0004C5123EA4C5350EA013518BF52EA033528
:1004D00041F4801143F4801338D0A0FB02CE4FF0DA
:1004E0000005E1FB02E506F00042E0FB03E54FF00A
:1004F0000006E1FB03569CF0000F18BF4EF0010E02
:10050000A4F1FF04B6F5007F64F5407404D25FEAFD
:100510004E0E6D4146EB060642EAC62141EA5551B0
:100520004FEAC52040EA5E504FEACE2EB4F1FD0CF2
:1005300088BFBCF5E06F1ED8BEF1004F08BF5FEA70
:10054000500E50F1000041EB045170BD06F0004622
:1005500046EA010140EA020081EA0301B4EB5C04CF
:10056000C2BFD4EB0C0541EA045170BD41F48011C7
:100570004FF0000E013C00F3AB8014F1360FDEBFEC
:10058000002001F0004170BDC4F10004203C35DAC8
:100590000C341BDC04F11404C4F1200500FA05F34B
:1005A00020FA04F001FA05F240EA020001F00042EC
:1005B00021F0004110EBD37021FA04F642EB060162
:1005C0005EEA430E08BF20EAD37070BDC4F10C048C
:1005D000C4F1200500FA04F320FA05F001FA04F250
:1005E00040EA020001F0004110EBD37041F100013C
:1005F0005EEA430E08BF20EAD37070BDC4F1200547
:1006000000FA05F24EEA020E20FA04F301FA05F2AE
:1006100043EA020321FA04F001F0004121FA04F256
:1006200020EA020000EBD3705EEA430E08BF20EA26
:10063000D37070BD94F0000F0FD101F00046400060
:1006400041EB010111F4801F08BF013CF7D041EAE2
:10065000060195F0000F18BF704703F000465200E6
:1006600043EB030313F4801F08BF013DF7D043EAB7
:100670000603704794EA0C0F0CEA135518BF95EA6D
:100680000C0F0CD050EA410618BF52EA4306D1D1F4
:1006900081EA030101F000414FF0000070BD50EA13
:1006A000410606BF1046194652EA430619D094EA9D
:1006B0000C0F02D150EA013613D195EA0C0F05D187
:1006C00052EA03361CBF104619460AD181EA0301DB
:1006D00001F0004141F0FE4141F470014FF0000093
:1006E00070BD41F0FE4141F4780170BD70B54FF02E
:1006F000FF0C4CF4E06C1CEA11541DBF1CEA1355AE
:1007000094EA0C0F95EA0C0F00F0A7F8A4EB05048F
:1007100081EA030E52EA03354FEA013100F0888086
:100720004FEA03334FF0805545EA131343EA12634F
:100730004FEA022245EA111545EA10654FEA002604
:100740000EF000419D4208BF964244F1FD0404F5BD
:10075000407402D25B084FEA3202B61A65EB030519
:100760005B084FEA32024FF480104FF4002CB6EBD6
:10077000020E75EB030E22BFB61A754640EA0C0056
:100780005B084FEA3202B6EB020E75EB030E22BF96
:10079000B61A754640EA5C005B084FEA3202B6EBD7
:1007A000020E75EB030E22BFB61A754640EA9C0096
:1007B0005B084FEA3202B6EB020E75EB030E22BF66
:1007C000B61A754640EADC0055EA060E18D04FEA24
:1007D000051545EA16754FEA06164FEAC30343EAC4
:1007E00052734FEAC2025FEA1C1CC0D111F4801F91
:1007F0000BD141EA00014FF000004FF0004CB6E78A
:1008000011F4801F04BF01430020B4F1FD0C88BF28
:10081000BCF5E06F3FF6AFAEB5EB030C04BFB6EB33
:10082000020C5FEA500C50F1000041EB045170BD26
:100830000EF0004E4EEA113114EB5C04C2BFD4EB53
:100840000C0541EA045170BD41F480114FF0000ED7
:10085000013C90E645EA060E8DE60CEA135594EA53
:100860000C0F08BF95EA0C0F3FF43BAF94EA0C0F56
:100870000AD150EA01347FF434AF95EA0C0F7FF4CB
:1008800025AF104619462CE795EA0C0F06D152EA1F
:1008900003353FF4FDAE1046194622E750EA410603
:1008A00018BF52EA43067FF4C5AE50EA41047FF414
:1008B0000DAF52EA43057FF4EBAE12E74FF0FF3C79
:1008C00006E000BF4FF0010C02E000BF4FF0010C4A
:1008D0004DF804CD4FEA410C7FEA6C5C4FEA430CC3
:1008E00018BF7FEA6C5C1BD001B050EA410C0CBF12
:1008F00052EA430C91EA030F02BF90EA020F002074
:10090000704710F1000F91EA030F58BF994208BFDA
:1009100090422CBFD8176FEAE37040F00100704797
:100920004FEA410C7FEA6C5C02D150EA013C07D1EE
:100930004FEA430C7FEA6C5CD6D152EA033CD3D039
:100940005DF8040B704700BF8446104662468C4633
:100950001946634600E000BF01B5FFF7B7FF002866
:1009600048BF10F1000F01BD4DF808EDFFF7F4FF8F
:100970000CBF012000205DF808FB00BF4DF808ED1A
:10098000FFF7EAFF34BF012000205DF808FB00BF3D
:100990004DF808EDFFF7E0FF94BF012000205DF85F
:1009A00008FB00BF4DF808EDFFF7CEFF94BF012014
:1009B00000205DF808FB00BF4DF808EDFFF7C4FF0D
:1009C00034BF012000205DF808FB00BF4FEA410C56
:1009D0007FEA6C5C02D150EA013C0AD14FEA430C39
:1009E0007FEA6C5C02D152EA033C02D14FF0000076
:1009F00070474FF0010070474FEA410212F50012B4
:100A000015D211D56FF47873B3EB625212D94FEA55
:100A1000C12343F0004343EA505311F0004F23FA3F
:100A200002F018BF404270474FF00000704750EA94
:100A3000013005D111F0004008BF6FF00040704751
:100A40004FF00000704700BF0348044B834202D0C0
:100A5000034B03B118477047C8010020C8010020AC
:100A6000000000000548064B1B1AD90F01EBA3013B
:100A7000491002D0034B03B118477047C80100204A
:100A8000C80100200000000010B5064C237843B9CF
:100A9000FFF7DAFF044B13B10448AFF300800123E2
:100AA000237010BDC8010020000000004439000878
:100AB00008B5054B1BB105490548AFF30080BDE8FB
:100AC0000840FFF7CFBF00BF00000000CC010020AE
:100AD00044390008002103E00A4B5B5843500431BD
:100AE00009480A4B42189A42F6D3094A02E0002309
:100AF00042F8043B074B9A42F9D300F075F800F036
:100B00006BFA7047E442000800000020C801002092
:100B1000C801002034030020FEE7000082B000235B
:100B2000019300932C4A136843F4803313602A4BDB
:100B30001B6803F400330093019B01330193009B76
:100B40001BB9019BB3F5A06FF1D1234B1B6813F4C4
:100B5000003F06D001230093009B012B04D002B07C
:100B6000704700230093F7E71C4B1A6842F010020D
:100B70001A601A6822F003021A601A6842F0020230
:100B80001A60A3F580535A685A605A685A605A68C6
:100B900042F480625A605A6822F47C125A605A68A1
:100BA00042F4E8125A601A6842F080721A600A4BE6
:100BB0001B6813F0007FFAD0074B5A6822F003023B
:100BC0005A605A6842F002025A60034B5B6803F0B5
:100BD0000C03082BF9D1C2E70010024000200240AC
:100BE00008B5FFF79BFF08BD08B5104B1A6842F027
:100BF00001021A6059680E4A0A405A601A6822F0C7
:100C0000847222F480321A601A6822F480221A60F8
:100C10005A6822F4FE025A604FF41F029A60FFF7EE
:100C2000DFFF044B4FF000629A6008BD00100240E5
:100C30000000FFF800ED00E070B582B0012108204F
:100C400000F0BCF914238DF8073003238DF806302B
:100C50004026ADF804600C4C01A9204600F050F984
:100C60008025ADF8045001A9204600F049F9012281
:100C70003146204600F09CF901222946204600F02A
:100C800097F902B070BD00BF000C014010B50B4CCD
:100C900001228021204600F08BF9012240212046CC
:100CA00000F086F900228021204600F081F9002220
:100CB0004021204600F07CF910BD00BF000C01402F
:100CC00010B5084C00228021204600F071F9012265
:100CD0004021204600F06CF901228021204600F0DE
:100CE00067F910BD000C014070B50646002413E002
:100CF000802141FA04F20F4D3240284600F058F9A5
:100D000001224021284600F053F9002240212846C4
:100D100000F04EF90134E4B2072CE9D9054C012268
:100D20004021204600F044F900224021204600F0F6
:100D30003FF970BD000C014010B50446FFF7A6FF57
:100D40007820FFF7D1FF0020FFF7CEFF2046FFF706
:100D5000CBFFFFF7B5FF10BD10B50446FFF796FFB8
:100D60007820FFF7C1FF4020FFF7BEFF2046FFF7C6
:100D7000BBFFFFF7A5FF10BD10B50C4640F0B0005B
:100D8000FFF7DAFF200940F01000FFF7D5FF04F06D
:100D90000F00FFF7D1FF10BD38B5002509E0002096
:100DA000FFF7DAFF0134E4B214F0800FF7D0013519
:100DB000EDB2072D05D800212846FFF7DDFF0024FE
:100DC000F2E738BDF8B5064615464F1EFF00FFB2E4
:100DD00001384000394600F0FE00FFF7CDFF002447
:100DE00009E0A5F12002114B03EB0213185DFFF798
:100DF000B3FF0134E4B2072CF3D97000C0B201385C
:100E00003946C0B2FFF7B8FF00240BE0A5F120017E
:100E100004F10802054B03EB0113985CFFF79CFFFC
:100E20000134E4B2072CF1D9F8BD00BF60390008E5
:100E3000F8B507460E461546002406E0A119C9B2CA
:100E40003846FFF7BFFF0134E4B22A5D002AF5D12E
:100E5000F8BD08B5002204E00133B3F57A7FFBD377
:100E60000132B2F57A7F01D20023F6E7FFF7E4FE04
:100E7000AE20FFF761FFD520FFF75EFF8020FFF770
:100E80005BFFA820FFF758FF3F20FFF755FFD32057
:100E9000FFF752FF0020FFF74FFF4020FFF74CFF06
:100EA000A120FFF749FFC820FFF746FFDA20FFF730
:100EB00043FF1220FFF740FF8120FFF73DFFCF20C7
:100EC000FFF73AFFD920FFF737FFF120FFF734FF94
:100ED000DB20FFF731FF3020FFF72EFFA420FFF7C4
:100EE0002BFFA620FFF728FF8D20FFF725FF1420FA
:100EF000FFF722FFAF20FFF71FFFFFF74DFF08BDF1
:100F000030B5CB7803F00F02964613F0100F03D0E4
:100F100091F802E04EEA020E0B78FBB1056800235F
:100F200001E042610133072B17D801229A40B1F842
:100F300000C032EA0C0CF5D19C004FF00F0C0CFAFB
:100F400004FC25EA0C050EFA04F42543CC78282C81
:100F5000E7D0482CE6D10261E4E705600B88FF2B5F
:100F600025D94568002303E0CC78482C1CD00133F8
:100F7000072B1BD803F1080C012202FA0CF2B1F87E
:100F800000C032EA0C0CF2D19C004FF00F0C0CFAAE
:100F900004FC25EA0C0C0EFA04F444EA0C05CC78A7
:100FA000282CE1D14261DFE70261E0E7456030BD16
:100FB0000AB10161704741617047000021B1054AE3
:100FC0009369034393617047024A936923EA0003DC
:100FD000936170470010024008B5FFF73AFF034ADB
:100FE00000210846FFF724FFFEE700BF503F00083E
:100FF0007047FEE7FEE7FEE7FEE770477047704781
:101000007047002B2DE9F0471D46BBBF03F100439D
:101010001D4600232D2388B01446B8BF1446129AEB
:10102000109E1370149BDDF84CA023F02008B8F13B
:10103000460F05D0B8F1450F00D10136022300E07C
:10104000032307AA049206AACDE902A2CDE900363D
:1010500022462B4600F024FEB8F1470F074619D16F
:10106000119BDB070ED500EB06090022002320466A
:101070002946FFF779FC08B1CDF81C903022079B78
:101080004B451ED33846079B159ADB1B136008B0EF
:10109000BDE8F087B8F1460F00EB0609E5D103780B
:1010A000302B0AD10022002320462946FFF75CFCA2
:1010B00018B9C6F10106CAF80060DAF800309944A0
:1010C000D3E7591C07911A70D9E7F7B50029B6BFC5
:1010D0002D232B23494209290270437029DD0DF18C
:1010E00007031D460A27B1FBF7F61A4607FB16143D
:1010F000303402F8014C0C46632C314603F1FF33C7
:10110000F1DC3031941E03F8011C2346411CAB4234
:101110000AD30DF109039B1AAC4288BF00230233A6
:101120000344181A03B0F0BD13F8016B01F8016F06
:10113000EDE7302330318370C170031DF1E700000B
:101140002DE9F04F91B00C46DDF8688016461F4639
:10115000054600F0BFFC036818460893FEF7D8FF69
:1011600000230E93D8F800300990073323F00703CB
:1011700003F1080294F818A0D4F800B0C8F80020D1
:10118000D3E9008929F000430B93CDF828804FF074
:10119000FF32DDE90A01C4E912899C4BFFF716FC16
:1011A00070BBDDE90A014FF0FF32984BFFF7F0FB0F
:1011B00030BB0022002340464946FFF7DFFB10B159
:1011C0002D2384F84330924A924BBAF1470F8CBFDB
:1011D0009046984603234FF0000923612BF0040347
:1011E000236033462146284600970FAA00F0D4F921
:1011F000013040F090804FF0FF3011B0BDE8F08F2B
:1012000042464B4640464946FFF7E0FB48B14B4655
:10121000002BB8BF2D23804AB8BF84F843307F4BE2
:10122000D3E763680AF0DF015A1C3FD106236360ED
:1012300000224BF48063236006920EAACDE904A23B
:101240000DAA03920DF13302CDE9013263684246E3
:10125000009328464B460A91FFF7D3FE0A99804631
:1012600047290D9928D1C81C02DB6368994240DDEB
:10127000AAF1020A5FFA8AFA5246013904F15000D3
:101280000D91FFF722FF0E9A81461318012A236160
:1012900002DC2268D20701D5013323619DF8333087
:1012A000002B9ED02D2384F843309AE74729BFD1E5
:1012B000002BBDD10123BAE7BAF1650FDCD9BAF131
:1012C000660F18D1002963680BDD216113B922680C
:1012D000D00702D501330B4423614FF00009A1650B
:1012E000DCE713B92268D20701D50233F4E7012302
:1012F000F2E74FF0670A0E9B994205DB23682161F4
:10130000D807EAD54B1CE7E70029CCBF0122C1F181
:1013100002021344E0E723685A0507D423694246D2
:1013200031462846B84701302BD164E7BAF1650F42
:1013300040F2DC80D4E9120100220023FFF714FB05
:10134000002833D0012331462846354AB8470130BA
:101350003FF451AFDDE90D38434502DB2368D80780
:101360000FD5DDE9082331462846B84701303FF460
:1013700042AF4FF0000908F1FF3804F11A0AC845DE
:1013800009DC23689B0700F10281E0680F9B98420B
:10139000B8BF184631E70123524631462846B847C0
:1013A00001303FF428AF09F10109E8E70D9B002B5C
:1013B00038DC012331462846194AB84701303FF44A
:1013C0001AAFDDE90D3959EA030302D12368D907C1
:1013D000D7D5DDE9082331462846B84701303FF428
:1013E0000AAF4FF0000A04F11A0B0D9B5B42534504
:1013F00001DC4B4693E701235A4631462846B8475D
:1014000001303FF4F8AE0AF1010AEEE7FFFFEF7F8B
:10141000613F00085D3F0008693F0008653F000824
:101420006D3F0008A36DDDF838A05345A8BF5346B3
:10143000002B994636DC4FF0000B29EAE97904F1DC
:101440001A02A36D0A93A3EB09035B4531DC0D9BE4
:101450009A453ADC2368DA0737D40D9BAAEB0309D7
:101460000A9BAAEB03039945A8BF9946B9F1000F5F
:1014700033DC4FF0000829EAE97904F11A0B0D9BDF
:10148000AAEB0303A3EB090343457FF77AAF0123DC
:101490005A4631462846B84701303FF4ACAE08F111
:1014A0000108ECE7424631462846B8470130C2D130
:1014B000A1E60123314628460A92B84701303FF49D
:1014C0009AAE0A9A0BF1010BBBE73146DDE908231E
:1014D0002846B8470130C0D18DE60A9A4B463146BE
:1014E00028464244B8470130C3D184E6DDF838A02D
:1014F000BAF1010F01DCDB0736D501234246314644
:101500002846B84701303FF476AEDDE9082331467E
:101510002846B84701303FF46EAED4E912010022EC
:1015200000230AF1FF3AFFF71FFAC0B9534608F14A
:10153000010231462846B84701300CD15BE6012351
:101540005A4631462846B84701303FF454AE08F1B8
:101550000108D045F3DB4B4604F15002E0E64FF0C2
:10156000000804F11A0BF4E701234246E1E70123E6
:101570004A4631462846B84701303FF43CAE08F1B0
:101580000108E3680F995B1A4345F0DCFDE64FF074
:10159000000804F11909F4E72DE9F04716469846CA
:1015A0008A680B6907469342B8BF1346336091F8C7
:1015B00043200C46DDF820900AB1013333602368E4
:1015C000990642BF336802333360256815F006057B
:1015D00006D104F1190AE36832689B1AAB422BDC8E
:1015E00094F843302268003B18BF0123920630D4A0
:1015F0004146384604F14302C847013023D02368EE
:10160000226903F00603042B14BF002533684FF052
:10161000000608BFE56804F11A0408BFED1A54F883
:10162000123C08BF25EAE5759342C4BF9B1AED182A
:10163000B5421AD1002008E00123524641463846FF
:10164000C847013003D14FF0FF30BDE8F0870135C6
:10165000C1E73020E11881F843005A1C94F8451086
:101660002244023382F84310C2E701232246414656
:101670003846C8470130E6D00136D9E72DE9FF47A3
:101680000F7E9146782F80460C469A460C9E01F1BB
:10169000430207D8622F0AD8002F00F0D180582FBC
:1016A00000F0B88004F1420684F842703AE0A7F1F5
:1016B0006303152BF6D801A151F823F01517000884
:1016C00029170008A5160008A5160008A516000889
:1016D000A516000829170008A5160008A516000879
:1016E000A5160008A51600082718000853170008BB
:1016F000E1170008A5160008A516000849180008FB
:10170000A516000853170008A5160008A51600081E
:10171000E917000833681A1D1B68326004F142069D
:1017200084F8423001239CE033682068191D316041
:10173000060601D51D6803E04506FBD5B3F9005048
:10174000002D03DA2D236D4284F843300A235848D4
:1017500011E021683368080653F8045B02D4490697
:1017600048BFADB26F2F336014BF0A23082350481F
:10177000002184F843106668002EA66005DB21680E
:101780002E4321F0040121604BD01646B5FBF3F146
:1017900003FB1157C75D06F8017D2F46BB420D467E
:1017A000F4D9082B0BD12368DF0708D523696168BA
:1017B0009942DEBF302306F8013C06F1FF36921B4A
:1017C00022614B4621464046CDF800A003AAFFF710
:1017D000E3FE01304AD14FF0FF3004B0BDE8F0879E
:1017E000236843F0200323607827324884F845704B
:1017F000236831681F0651F8045B02D45F0648BFB6
:10180000ADB23160D90744BF43F0200323601DB15E
:101810001023ADE72648E9E7236823F0200323607F
:10182000F6E71646BDE733682568181D6169306024
:101830002E061B6801D5196002E06806FBD51980E9
:10184000002316462361BCE7336800211A1D32606D
:101850001E686268304600F08AF908B1801B60603B
:1018600063682361002384F84330AAE7324649467F
:1018700040462369D0470130ADD023689B0713D47D
:10188000E068039B9842B8BF1846A6E7012332469A
:1018900049464046D04701309DD00135E368039961
:1018A0005B1AAB42F2DCEBE7002504F11906F5E721
:1018B0006F3F0008803F0008002310B50446C0E9D0
:1018C0000033C0E90433836081814366C281836150
:1018D000194608225C3000F0F4F80D4B2462636274
:1018E0000C4BA3620C4BE3620C4B23630C4B9C42EE
:1018F00006D003F16802944202D0D0339C4205D155
:1019000004F15800BDE8104000F02EB910BD00BF32
:101910003D1A00085F1A0008971A0008BB1A000851
:10192000E4010020024A0349034800F069B800BFFF
:10193000000000200D3200081000002041680C4B10
:1019400010B59942044601D001F060FCA168094B32
:10195000994202D0204601F059FCE168064B9942B9
:1019600004D02046BDE8104001F050BC10BD00BFBF
:10197000E40100204C020020B402002010B50B4B03
:101980000B4C0C4A20461A6004210022FFF794FFFA
:1019900004F1680001220921FFF78EFF04F1D00055
:1019A0000222BDE810401221FFF786BF1C03002071
:1019B000E401002025190008014800F0D6B800BF56
:1019C00025030020014800F0D1B800BF2503002006
:1019D00010B50446FFF7F0FF236A1BB1BDE81040C5
:1019E000FFF7F0BF044B2362044B1B68002BF5D1BB
:1019F000FFF7C4FFF2E700BF3D1900081C030020F9
:101A00002DE9F8430746884614460026D4E9019597
:101A1000B9F1010905D52468002CF7D13046BDE89D
:101A2000F883AB89012B07D9B5F90E30013303D008
:101A300029463846C04706436835E9E710B50C46E5
:101A4000B1F90E1000F06CF80028ABBF636DA389EC
:101A50001B1823F48053ACBF6365A38110BD2DE92F
:101A6000F0411F468B890546DB050C46164605D519
:101A700002230022B1F90E1000F040F8A38932468B
:101A800023F48053A38128463B46B4F90E10BDE8E9
:101A9000F04100F057B810B50C46B1F90E1000F047
:101AA0002DF8431CA38915BF606523F4805343F4CC
:101AB0008053A38118BFA38110BDB1F90E1000F0AF
:101AC0000DB803460244934200D1704703F8011B4E
:101AD000F9E70000004870474C01002038B50023AA
:101AE000054D044608462B6001F0DCFE431C02D184
:101AF0002B6803B1236038BD2003002038B50446AD
:101B0000084611460022054D2A601A4601F0F2FEF1
:101B1000431C02D12B6803B1236038BD2003002091
:101B200038B50446084611460022054D2A601A467B
:101B300001F0E8FE431C02D12B6803B1236038BDDD
:101B40002003002038B50446084611460022054D02
:101B50002A601A4601F0ECFE431C02D12B6803B147
:101B6000236038BD2003002070477047704703464C
:101B700010B5C9B202449342184601D1002003E0D7
:101B8000047801338C42F6D110BD2DE9F74F03697B
:101B90000C690746A3427EDB013CA30000F114055B
:101BA00001F11408009305EB8403019358F82430E5
:101BB00055F8242001339A42B2FBF3F608EB84096E
:101BC0002ED34FF0000AC446AE46D3465CF8043B21
:101BD00098B206FB00A01B0C020C06FB0323DEF8E8
:101BE000002080B292B2121A5A44DEF800004FEA86
:101BF000134A9BB2C3EB224303EB104392B242EA77
:101C00000342E1454FEA234B4EF8042BDED2009B02
:101C1000EB582BB9019B043B9D421A462FD33C61E4
:101C2000384601F06BF9002825DB2946002058F8DA
:101C3000042BD1F800C01FFA82FE1FFA8CF3A3EB2D
:101C40000E030344120CC2EB234202EB1C429BB274
:101C500043EA0243C1454FEA224041F8043BE6D241
:101C600055F8242005EB840322B9043B9D421A4613
:101C70000BD33C610136304603B0BDE8F08F1268EB
:101C8000043B002ACBD1013CC6E71268043B002A82
:101C9000EFD1013CEAE70020EEE700000000000081
:101CA0002DE9F04F14461D46C76997B08346CDE92C
:101CB0000445239E7FB9102000F0F8FD0246CBF8C2
:101CC0001C0020B9EF21A84BA84801F0E5FAC0E9B3
:101CD00001770760C760DBF81C30196859B15A6892
:101CE000012393404A608B60584600F0D5FE0022E5
:101CF000DBF81C301A602B1EAFBF0023012223F03B
:101D000000430593A8BF3360DDF81480984BB8BF3B
:101D1000326033EA080312D142F20F73229A136041
:101D2000C8F31303234300F04685249BDFF844A245
:101D3000002B00F048850AF1030300F042BDDDE905
:101D40000423CDE90C23DDE90C0100220023FEF77A
:101D50000BFE074658B10123229A1360249B13B14E
:101D6000854B249A1360DFF814A200F02CBD14AB4D
:101D7000019315AB00935846DDE90C2301F06EF991
:101D8000C8F30A568146002E77D0DDE90C010D9B81
:101D9000A6F2FF36C3F3130343F07F5343F440131B
:101DA000129719460022764BFEF7BEF968A3D3E9D5
:101DB0000023FEF771FB68A3D3E90023FEF7B6F911
:101DC000044630460D46FEF7FDFA65A3D3E900232D
:101DD000FEF762FB02460B4620462946FEF7A6F9AF
:101DE00004460D46FEF708FE002207460023204663
:101DF0002946FEF7C3FD40B13846FEF7E3FA224616
:101E00002B46FEF7B1FD00B9013F162F53D8DDE98F
:101E10000C015C4B03EBC703D3E90023FEF7AEFDD7
:101E200000284AD00023013F0F93149B9B1B5A1E8E
:101E300046BFC3F1010800234FF00008099248BFD4
:101E40000993002F3BDB099B0E973B44099300232A
:101E50000A93209B092B63D8052BC4BF043B209316
:101E6000209BC8BF0024A3F10203D8BF0124032B89
:101E700062D8DFE803F05153362BDDE914631E44CA
:101E800006F23243202BC1BFC3F1400308FA03F826
:101E900006F2124324FA03F3D6BFC3F1200348EA43
:101EA000030004FA03F0FEF77DFA0122A1F1F873B2
:101EB000013E129275E70123B6E70F90B5E77B422A
:101EC0000A930023A8EB07080E93C2E701230B93A4
:101ED000219BFB1808930133012B0393B8BF012307
:101EE00006E001230B93219B002B28DD089303932D
:101EF00000210422DBF81C0002F114059D4223D9C5
:101F00004160584600F088FD824600283ED10246D6
:101F100040F2AF111C4BD7E60023E3E70023D6E7DE
:101F2000012400230B9420934FF0FF3300220893E9
:101F3000039312232192DBE701230B93F4E70123A0
:101F40001A4608930393F5E701315200D4E700BF26
:101F500061436F63A787D23FB3C8608B288AC63FAF
:101F6000FB799F501344D33F9E3F0008B53F0008C4
:101F70000000F07F9A3F00086E3F00086D3F0008A8
:101F80000000F83F084100080E400008DBF81C3054
:101F90001860039B0E2B00F2A180002C00F09E80A5
:101FA000002F33DD9C4B07F00F0203EBC203F80553
:101FB000D3E90034CDE906344FEA271416D5DDE91C
:101FC0000C01964B0326D3E90823FEF78FFBCDE9DE
:101FD000040104F00F04914D54B9DDE90623DDE955
:101FE0000401FEF783FBCDE9040128E00226F2E7B5
:101FF000E10708D5DDE90601D5E90023FEF74CFA33
:10200000CDE90601013664100835E5E700F0AF8040
:10201000DDE90C017C42804B04F00F0203EBC203AC
:10202000D3E90023FEF738FA02260023CDE90401A4
:102030007A4D2411002C40F08F80002BD3D1DDE9A4
:1020400004450F9B002B00F0948000222046294677
:10205000734BFEF793FC002800F08B80039B002B52
:1020600000F08780089B002B34DD7B1E2046069302
:10207000002229466B4BFEF70FFACDE90401089CBC
:1020800001363046FEF79EF9DDE90423FEF704FA37
:102090000022654BFEF74AF80546A1F15076002C68
:1020A0006AD1DDE904010022604BFEF73DF80246EB
:1020B0000B46CDE904232A463346FEF77DFC002873
:1020C00040F08682DDE904012A4606F10043FEF76E
:1020D00055FC38BBDDE90C34CDE90434159B002BED
:1020E000C0F258810E2F00F355814B4B03EBC70311
:1020F000D3E90034CDE90634219B002B80F2E58042
:10210000039B002B00F3E1800CD1DDE906010022E6
:10211000464BFEF7C1F9DDE90423FEF743FC002836
:1021200000F0548200242546219B5646DB4306934B
:1021300000272146584600F0AFFC002D00F0BD807E
:102140002FB1AF4203D03946584600F0A5FC2946CE
:10215000584600F0A1FCB0E0E20705D5D5E9002320
:10216000FEF79AF9012301366410083562E702266A
:1021700065E7039C069784E7274B0B9903EBC403A1
:1021800053E902235444002954D000202849FEF783
:10219000ADFA33462A46FDF7C7FF5646CDE9100192
:1021A000DDE90401FEF728FC0546FEF70BF90246BF
:1021B0000B46DDE90401FDF7B7FF02460B4630355B
:1021C000CDE90423DDE9102306F8015BFEF7D6FB19
:1021D000002872D1DDE9042300201149FDF7A4FF96
:1021E000DDE91023FEF7CAFB002840F0B480A642C8
:1021F0003FF470AFDDE9100100220A4BFEF74CF905
:102200000022CDE91001DDE90401064BFEF744F997
:10221000CDE90401C4E700BF08410008E040000820
:102220000000F03F0000244000001C40000014406B
:102230000000E03F31462846FEF72EF95646CDE92C
:1022400010011394DDE90401FEF7D6FB0546FEF705
:10225000B9F802460B46DDE90401FDF765FF0246C9
:102260000B46303506F8015BA642CDE904234FF05A
:10227000000224D1DDE91001B14BFDF757FF024602
:102280000B46DDE90401FEF797FB002863D1DDE989
:1022900010230020AA49FDF747FF02460B46DDE95F
:1022A0000401FEF76BFB00283FF414AF139E731E6E
:1022B000139316F8013C302BF8D0069F3BE0A14B5E
:1022C000FEF7EAF8CDE90401BCE75646DDE904452E
:1022D000DDE9062320462946FEF708FAFEF78CFBC7
:1022E0008046FEF76FF8DDE90623FEF7D5F80246D3
:1022F0000B4620462946FDF717FF08F13004039DE1
:1023000006F8014BA6EB0A04A54202460B4634D15F
:10231000FDF70CFFDDE9062304460D46FEF74CFBF6
:10232000C0B9DDE9062320462946FEF71DFB10B1A2
:1023300018F0010F0ED14946584600F0ADFB0023BE
:102340003370229B01371F60249B002B00F03B82DF
:102350001E6038E2069733461E4613F8012D392ACF
:1023600007D19A45F8D1069A0132069230228AF8AE
:1023700000201A7801321A709FE70022714BFEF795
:102380008BF80022002304460D46FEF7EDFA0028E4
:102390009ED0D0E70B9A002A00F0E080209A012A14
:1023A00000F3BF80129A002A00F0B78003F2334393
:1023B0000A9C4646099A01211A44584698440992B3
:1023C00000F01EFC05465EB1099B002B08DDB34200
:1023D000A8BF3346099AA8EB0308F61AD31A099343
:1023E0000A9BF3B10B9B002B00F0BC808CB12946FB
:1023F0002246584600F0BCFC4A460146054658466F
:1024000000F014FC49460690584600F045FB069B38
:1024100099460A9B1A1B04D04946584600F0A8FC6E
:1024200081460121584600F0EBFB0E9B0446002B31
:1024300000F0CD811A460146584600F099FC209BD9
:102440000446012B00F39480049B002B40F08C8009
:10245000059BC3F31303002B40F08880059B23F0FA
:1024600000431B0D1B052BB1099B08F1010801332B
:10247000099301230A930E9B002B00F0AE81236980
:1024800004EB8303186900F06FFBC0F12000099B87
:10249000184410F01F0076D0C0F12003042B6ADD31
:1024A000099BC0F11C000344804406440993B8F121
:1024B000000F05DD49464246584600F0B3FC814610
:1024C000099B002B05DD21461A46584600F0AAFC60
:1024D00004460F9B002B58D02146484600F00EFDC5
:1024E000002852DA7B1E494606930A2200235846EA
:1024F00000F0F4FA0B9B8146002B00F07081002362
:1025000029460A22584600F0E9FA089B0546002BA6
:1025100066DC209B022B40DC62E0149BC3F1360397
:1025200046E7039B5C1E0A9BA3420DDB1C1B039B1F
:10253000002BBFF63EAF039BA8EB0306002339E751
:102540000000E03F000024400A9B0E9AE31A1A4460
:102550000A9446460024039B0E922BE746460A9CAB
:102560000B9D30E70A9A57E7002383E7049B81E736
:1025700000230A9383E79AD0099A1C331A4498449B
:102580001E44099293E70346F6E7039B0697002B48
:1025900020DC0893209B022B1EDD089B002B7FF480
:1025A000C3AD21460522584600F098FA014604467C
:1025B000484600F0A3FC00287FF7B6AD312356460D
:1025C00006F8013B069B01330693B1E5039C069791
:1025D0002546F3E7039B08930B9B002B00F0038138
:1025E000002E05DD29463246584600F01BFC054604
:1025F0000A9B002B5AD05846696800F00DFA06462F
:1026000028B9024640F2EF21824BFFF75DBB2A69F1
:1026100005F10C01023292000C3000F02FFE012275
:102620003146584600F0FEFB2F4605460AF10103ED
:102630000393089B53440B93049B03F001030A93F9
:10264000039B2146013B48460493FFF79EFA394617
:10265000089000F13008484600F050FC2A460990E6
:102660002146584600F066FCC268064602BB014699
:10267000484600F043FC0246314658460C9200F0B2
:102680000BFA209B0C9A039E42EA03010A9B194312
:1026900010D1B8F1390F29D0099B002B02DD089B1E
:1026A00003F13108049B83F8008042E52846BBE72C
:1026B0000122E1E7099B002B04DB20990B430A99D7
:1026C0000B4320D1002AEDDD49460122584600F097
:1026D000A9FB2146814600F011FC002803DCE1D172
:1026E00018F0010FDED0B8F1390FD8D13923049A90
:1026F000137033461E4616F8012C013B392A51D07F
:1027000001321A7015E5002A07DDB8F1390FEDD056
:10271000049A08F1010313700BE5039B0B9A03F86D
:10272000018C934228D0494600230A22584600F0E3
:10273000D5F9AF4281464FF000034FF00A02394607
:10274000584607D100F0CAF907460546039B0133F6
:10275000039375E700F0C2F92946074600230A22D1
:10276000584600F0BBF90546F0E7089B0027002B10
:10277000CCBF1E460126564449460122584600F069
:1027800051FB2146814600F0B9FB0028B1DC02D1A3
:1027900018F0010FADD133461E4613F8012D302A33
:1027A000FAD0C6E49A45A5D1069B0133069331239E
:1027B0008AF80030BDE4249BDFF85CA01BB10AF16D
:1027C0000803249A1360504617B0BDE8F08F209B91
:1027D000012B7FF739AE0E9B0A93012057E6089B29
:1027E000002B7FF7D7AE564621464846FFF7CDF976
:1027F00000F13008089B06F8018BA6EB0A02934211
:10280000B3DD494600230A22584600F067F98146A5
:10281000EAE700BF0E400008913F000838B50546C2
:10282000002940D051F8043C0C1F002BB8BFE4181D
:1028300000F0E6F81C4A136833B963601460284658
:10284000BDE8384000F0E2B8A34208D9206821185A
:102850008B4201BF19685B6809182160EDE71A46D1
:102860005B680BB1A342FAD911685018A0420BD192
:1028700020680144501883421160E0D118685B68F9
:10288000084410605360DAE702D90C232B60D6E7C6
:10289000206821188B4201BF19685B680918216004
:1028A00063605460CBE738BD2C030020024B014627
:1028B000186800F025B800BF0C00002070B50F4E5E
:1028C0000C463168054611B900F0C8FC306021465D
:1028D000284600F0C3FC431C03D14FF0FF342046D0
:1028E00070BDC41C24F00304A042F8D0211A28466D
:1028F00000F0B4FC0130F2D1EFE700BF2803002064
:102900002DE9F843CD1C25F0030508350C2D38BF03
:102910000C25002D064601DBA94204D90C233360A7
:102920000020BDE8F883DFF8D48000F069F8D8F81B
:1029300000301C4644BB29463046FFF7BFFF431C0E
:10294000044658D1D8F800402746002F43D1002C28
:102950004BD023683946304604EB030900F07EFC77
:10296000814542D1216830466D1A2946FFF7A6FFFE
:1029700001303AD023682B442360D8F800305A68DD
:1029800062BBC8F800700FE02268521B20D40B2AEB
:1029900017D96119A342256018BF5960636808BF41
:1029A000C8F8001062514B60304600F02FF804F177
:1029B0000B00231D20F00700C21A1CBF1B1AA350D6
:1029C000AFE76268A3420CBFC8F800205A60EBE78B
:1029D00023466468AEE73C467F68B6E71A465B6804
:1029E000A342FBD100235360DEE70C233046336063
:1029F00000F00CF894E70560D6E700BF2C03002038
:102A00000148FFF7B2B800BF240300200148FFF7D8
:102A1000ADB800BF2403002070B5C66904460D465A
:102A200076B91020FFF742FF0246E06120B96B2122
:102A3000174B184800F030FCC0E901660660C6601C
:102A4000E669F36883B1E369DB6853F82500B8B938
:102A5000012101FA05F6721D2046920000F03AFCB1
:102A600060B1C0E901560EE021220421204600F0A9
:102A700031FCE369F060DB68002BE4D1002070BD1D
:102A8000026843F825200023C0E90333F7E700BFBD
:102A90009E3F00081F40000870B5C66905460C46F9
:102AA00076B91020FFF702FF0246E86120B98F21B6
:102AB000084B094800F0F0FBC0E901660660C660FB
:102AC0003CB1EB696268DB6853F82210216043F87F
:102AD000224070BD9E3F00081F4000082DE9F041D4
:102AE00007460C461E4600200D6901F1140CDCF867
:102AF0000030013099B202FB01611E0C0B0C02FB8D
:102B0000063389B201EB034185424FEA13464CF884
:102B1000041BECDC0EB3A368AB4219DC61683846D9
:102B20000131FFF779FF804628B90246BA210C4BE4
:102B30000C4800F0B1FB226904F10C010232920052
:102B40000C3000F09BFB21463846FFF7A5FF4446BA
:102B500004EB850301355E6125612046BDE8F08107
:102B60000E4000081F4000080346B0F5803F3ABF02
:102B7000030410200020B3F1807F3CBF1B0208300B
:102B8000B3F1805F3CBF1B010430B3F1804F3CBF09
:102B90009B000230002B05DB13F0804F00F1010099
:102BA00008BF202070470368024613F007000BD0CF
:102BB000D90721D4980749BF5B089B0801201360FF
:102BC0005CBF02201360704799B209B910201B0C3A
:102BD000D9B209B908301B0A190704BF1B09043010
:102BE000990704BF9B080230D90703D45B0800F1A2
:102BF000010003D013607047002070472020704709
:102C000010B50C460121FFF707FF024628B940F234
:102C10004511044B044800F03FFB0123446103616C
:102C200010BD00BF0E4000081F4000082DE9F04F06
:102C300017460A693B6989469A42A2BF3B460F463E
:102C400099463D69D9F810A0BB68796805EB0A067A
:102C5000B34285B0B8BF0131FFF7DEFE30B902469E
:102C60004FF4B171404B414800F016FB00F11404E1
:102C70002346002204EB860E734520D307F1140887
:102C800009F1140108EB850501EB8A030293EB1BA4
:102C9000153B23F0030304331537BD4238BF04232B
:102CA0000193029B03918B420CD8002E03DD5EF84A
:102CB000043D002B55D0066105B0BDE8F08F43F808
:102CC000042BD9E7B1F800A0BAF1000F1FD0C44619
:102CD000A14600275CF8042BD9F800301FFA82FBCC
:102CE0009BB20AFB0B333B44D9F80070120C3F0C2B
:102CF0000AFB027202EB13429BB243EA02436545B0
:102D00004FEA124749F8043BE4D8019BE750039B84
:102D10000431B3F80290B9F1000F20D04746A44621
:102D20004FF0000A2368B7F800B0BCF802209BB24D
:102D300009FB0B22524443EA02434CF8043B57F888
:102D4000043B4FEA134ABCF80030BD4209FB0A338A
:102D500003EB12434FEA134AE5D8019AA350043417
:102D60009FE7013EA1E700BF0E4000081F4000089A
:102D70002DE9F843154612F0030207460E4607D028
:102D8000254C013A002354F82220FFF7A7FE0646FF
:102D9000AD103DD0FC697CB91020FFF787FD0246DD
:102DA000F86128B940F2B3111C4B1D4800F074FAC9
:102DB000C0E901440460C460D7F81C80D8F808401A
:102DC0004CB940F271213846FFF71AFF0023044640
:102DD000C8F8080003604FF00009EB070AD5314638
:102DE00022463846FFF722FF804631463846FFF735
:102DF00053FE46466D100BD0206838B92246214656
:102E00003846FFF713FF2060C0F800900446E4E75F
:102E10003046BDE8F88300BFD04000089E3F000860
:102E20001F4000082DE9F0470C46074691462369EC
:102E3000496803EB6218A3684FEA621A08F10106B9
:102E4000B3420BDB3846FFF7E7FD054648B90246BB
:102E50004FF4EF71274B284800F01EFA01315B0058
:102E6000EEE7002300F1140100F11002184653456B
:102E700033DB20692AEAEA7A04F1140319F01F0906
:102E800001EB8A0103EB800C2BD08A460022C9F1AA
:102E9000200E186800FA09F010434AF8040B53F8A2
:102EA000042B9C4522FA0EF2F3D8ACEB0403153B3D
:102EB00023F00303043304F11500604588BF0423A5
:102EC000CA500AB108F10206013E384621462E6179
:102ED000FFF7E2FD2846BDE8F08742F8040F013312
:102EE000C5E7043953F8042B9C4541F8042FF9D861
:102EF000EAE700BF0E4000081F40000803460A69C9
:102F0000006930B5801A0ED11433143103EB8204FA
:102F100001EB820154F8045D51F8042D954203D071
:102F200005D24FF0FF3030BDA342F3D3FBE70120C1
:102F3000F9E700002DE9F74F894606461146484655
:102F40001446FFF7DBFF051E12D129463046FFF776
:102F500063FD024628B940F237213E4B3E4800F05F
:102F60009BF90123C0E90435104603B0BDE8F08F9A
:102F7000BCBF4B46A1463046D9F80410BABF1C4628
:102F800001250025FFF748FD024618B940F245210A
:102F9000304BE3E700F1140BD9F8107009F110037E
:102FA000C5604FF0000C09F11405D946266904F1FB
:102FB000140E05EB87080EEB86060193019B5EF865
:102FC000040B53F804AF81B201931FFA8AF35B1A22
:102FD000000C6344C0EB1A4000EB23409BB243EA71
:102FE000004376454FEA204C49F8043BE6D8331BB2
:102FF000153B23F0030315340433A64238BF0423E2
:103000001D445B441E462C4644450ED308F1030183
:10301000491B21F00301033DA84538BF00210B44A3
:1030200053F8041D99B117619EE7E64654F8041B56
:103030001FFA81FCF444080C714400EB2C4089B267
:1030400041EA00414FEA204C46F8041BDCE7013F0F
:10305000E6E700BF0E4000081F4000082DE973435B
:10306000012190469946089EFFF7D6FC044630B9E8
:10307000024640F20F31234B234800F00DF9C9F30B
:103080000A55C9F313030DB143F480130193B8F14A
:10309000000324D068460093FFF785FDDDE90012A8
:1030A000D8B1C0F1200302FA03F30B43C2406361BD
:1030B0000192019B002B0CBF01220222A36122611D
:1030C000ADB1A5F2334505443560C0F13500099B2B
:1030D0001860204602B0BDE870836161E9E701A88D
:1030E000FFF761FD019B012263612030E7E7A0F259
:1030F000324004EB820330601869FFF735FDC0EB06
:103100004210E4E70E4000081F400008B1F90C200F
:10311000F8B5160705460C4654D44B68002B02DC64
:103120000B6C002B48DDE66A002E45D0002312F41C
:1031300080522F68216A2B6030D0626DA3895907B5
:1031400005D56368D21A636B0BB1236CD21A0023C6
:103150002846E66A216AB047431CA38906D129683C
:103160001D292BD8284ACA40D60727D500226260DD
:103170002269D904226004D5421C01D12B6803B90D
:103180006065616B2F60B9B104F14403994202D0CC
:103190002846FFF743FB002363630DE00123284625
:1031A000B0470246501CC9D12B68002BC6D01D2B3E
:1031B00001D0162B1DD12F60002021E043F04003E9
:1031C0001BB21AE00F69002FF6D0930718BF002337
:1031D0000E6808BF4B69F61B0F608B60002EEBDD9D
:1031E00033463A462846216AD4F828C0E0470028EA
:1031F00007DCB4F90C3043F040034FF0FF30A381FB
:10320000F8BD0744361AE9E70100402038B50B69DC
:1032100005460C4613B90025284638BD18B1036A87
:103220000BB9FEF7D5FBB4F90C30002BF3D0626E6E
:10323000D00704D4990502D4A06DFEF796FC284669
:103240002146FFF763FF636E0546DA07E4D4A389DE
:103250009B05E1D4A06DFEF789FCDDE738B50023BE
:10326000054D044608462B6000F054FB431C02D178
:103270002B6803B1236038BD200300200A4491422B
:1032800000F1FF3300D1704710B511F8014B9142A6
:1032900003F8014FF9D110BD1FB514461A46094B6A
:1032A00005461B68D8684CB1074BCDE90134009145
:1032B0002B46064900F042F800F052F8044B1C4639
:1032C000F3E700BF0C000020834000089040000896
:1032D000BE40000870B5A1FB025434B92946FFF77F
:1032E0000FFB064628B9304670BD0C22002602604E
:1032F000F9E72A462146FEF7E4FBF4E782B001B97C
:1033000001A942B14BB113780B601278101E18BF9F
:10331000012002B070471046FBE76FF00100F8E7AC
:103320000346084641B1FF2A04D98A224FF0FF30F4
:103330001A60704701200A70704700000EB403B590
:10334000014603AB054853F8042B0068019300F0D5
:1033500035F802B05DF804EB03B070470C000020B4
:10336000062008B500F0FEF9012000F0E9FA9368A4
:1033700010B4013B002B936007DA9469A34201DB90
:103380000A2902D110BC00F031B91368581C106032
:103390001970084610BC7047F8B506460F4614462B
:1033A000D518AC4201D1002007E03A46304614F867
:1033B000011BFFF7DCFF431CF3D1F8BD2DE9F04FF3
:1033C0000D461446984606469DB018B1036A0BB9DF
:1033D000FEF7FEFA6B6ED90705D4AB899A0502D4C5
:1033E000A86DFEF7C2FBAB891B0701D52B699BB902
:1033F0002946304600F038F970B16B6EDC0704D511
:103400004FF0FF301DB0BDE8F08FAB899805F7D4C1
:10341000A86DFEF7ABFBF3E70023099320238DF89B
:10342000293030234FF00109CDF80C80DFF8A88156
:103430008DF82A3023469A4613F8012B0AB1252A23
:10344000F9D1BAEB040B0BD05B4622462946304635
:10345000FFF7A2FF013000F0A780099A5A440992B1
:103460009AF80030002B00F09F8000234FF0FF32CD
:10347000CDE905230AF1010A049307938DF853302F
:103480001A935446052214F8011B5348FEF76FFBAC
:10349000049AD8B9D10644BF20238DF853301307BE
:1034A00044BF2B238DF853309AF800302A2B15D0C7
:1034B000544600204FF00A0C079A214611F8013BB0
:1034C000303B092B4BD9B0B1079214E0A0EB0803B5
:1034D00009FA03F31343A2460493D2E7039B191D91
:1034E0001B680391002BBBBF5B4242F002020793B3
:1034F0000793B8BF049223782E2B0AD163782A2B26
:1035000032D1039B02341A1D1B68039243EAE37312
:103510000593DFF8C8A0032250462178FEF727FB69
:1035200038B14022049BA0EB0A00824013430134CF
:10353000049314F8011B062229488DF82810FEF781
:1035400016FB00283FD0274B1BBB039B073323F000
:10355000070308330393099B3B4409936AE70C462E
:1035600001200CFB0232A8E700234FF00A0C194699
:1035700001340593204610F8012B303A092A03D96B
:10358000002BC6D00591C4E7044601230CFB0121A2
:10359000F0E703AB00932A463046134B04A9FDF72E
:1035A000CFFD0746781CD6D16B6ED90705D4AB8901
:1035B0009A0502D4A86DFEF7D9FAAB895B063FF5F0
:1035C0001FAF09981EE703AB00932A463046064B0F
:1035D00004A9FEF753F8E4E7BF400008C54000081F
:1035E000C94000084111000899330008F8B50E469B
:1035F0001446054618B1036A0BB9FEF7E9F9A36949
:10360000A360A3891A0701D5236943B92146284637
:1036100000F02AF818B14FF0FF373846F8BD23689C
:103620002269F6B2981A63693746834205DC21465F
:103630002846FFF7EBFD0028EDD1A368013BA3600E
:1036400023685A1C22601E706269431C9A4204D08F
:10365000A389DB07E1D50A2EDFD121462846FFF7F3
:10366000D5FD0028D9D0D6E738B5294B05461868CE
:103670000C4618B1036A0BB9FEF7AAF9B4F90C307D
:10368000190722D4DA0607D409222A6043F040033E
:103690004FF0FF30A38133E0580712D5616B41B181
:1036A00004F14403994202D02846FFF7B7F80023FB
:1036B0006363A38923F02403A38100236360236948
:1036C0002360A38943F00803A38123694BB9A3892D
:1036D00003F42073B3F5007F03D02146284600F0A1
:1036E00082F8B4F90C3013F001020AD00022A26073
:1036F00062695242A261226942B913F08000C5D1C9
:1037000038BD990758BF6269A260F4E70020F7E767
:103710000C0000201F2938B505460C4604D9162395
:1037200003604FF0FF3038BDC26B12B152F8213048
:103730004BB9284600F030F8224601462846BDE83D
:10374000384000F017B8012B0AD0591C03D11623BA
:1037500003600120E7E70021204642F82410984743
:103760000020E0E7024B01461868FFF7D3BF00BF17
:103770000C00002038B50023064D044608461146CB
:103780002B6000F0AFF8431C02D12B6803B123601B
:1037900038BD00BF2003002000F094B870B50C467F
:1037A000B1F90E10154600291E4696B00CDAA38911
:1037B000002113F0800F14BF40234FF480630020DA
:1037C00031602B6016B070BD6A4600F049F80028E1
:1037D000EDDB019901F47041A1F5005359425941C3
:1037E0004FF48063EBE78B89F7B59D0706460C46DF
:1037F00007D504F14703236023610123636103B00C
:10380000F0BD6A4601ABFFF7C9FF009F0546394688
:103810003046FFF775F848B9B4F90C309A05EED484
:1038200023F0030343F00203A381E2E7A389C4E981
:10383000040743F08003A381019B20605BB1304605
:10384000B4F90E1000F01EF828B1A38923F0030389
:1038500043F00103A381A3891D43A581CFE70000A5
:1038600038B50023064D0446084611462B6000F08B
:1038700021F8431C02D12B6803B1236038BD00BF7F
:103880002003002038B50023054D044608462B6070
:1038900000F020F8431C02D12B6803B1236038BD2F
:1038A000200300205822024B4FF0FF301A6070476F
:1038B000200300205822024B4FF0FF301A6070475F
:1038C000200300205822024B4FF0FF301A6070474F
:1038D000200300205822024B00201A60704700BFCE
:1038E000200300205822024B4FF0FF301A6070472F
:1038F000200300205822024B4FF0FF301A6070471F
:10390000200300205822024B4FF0FF301A6070470E
:1039100020030020044A05491368002B08BF0B460A
:103920001844106018467047300300203803002008
:103930005822024B4FF0FF301A60704720030020DE
:10394000FEE700BFF8B500BFF8BC08BC9E46704754
:0C395000F8B500BFF8BC08BC9E467047EC
:103960000000000000000000000000000000000057
:10397000000000F8000000000000003330000000EC
:1039800000100C06100C06000000000000000000F3
:1039900040C07840C0784000043F04043F04040065
:1039A000007088FC08300000001820FF211E000075
:1039B000F008F000E018000000211C031E211E008A
:1039C00000F00888700000001E2123241927211010
:1039D00010160E00000000000000000000000000B3
:1039E000000000E01804020000000007182040005A
:1039F00000020418E000000000402018070000004A
:103A0000404080F0804040000202010F01020200AD
:103A1000000000F0000000000101011F0101010091
:103A2000000000000000000080B0700000000000F6
:103A3000000000000000000000010101010101017F
:103A40000000000000000000003030000000000016
:103A500000000000806018040060180601000000EB
:103A600000E010080810E000000F102020100F00E8
:103A7000001010F8000000000020203F202000006F
:103A800000700808088870000030282422213000C7
:103A900000300888884830000018202020110E00CF
:103AA0000000C02010F8000000070424243F240078
:103AB00000F80888880808000019212020110E004D
:103AC00000E0108888180000000F112020110E005F
:103AD00000380808C83808000000003F0000000057
:103AE0000070880808887000001C222121221C0018
:103AF00000E010080810E0000000312222110F0041
:103B0000000000C0C00000000000003030000000D5
:103B10000000008000000000000080600000000045
:103B2000000080402010080000010204081020005E
:103B300040404040404040000404040404040400A9
:103B4000000810204080000000201008040201003E
:103B5000007048080808F00000000030360100003E
:103B6000C030C828E810E0000718272423140B00F1
:103B70000000C038E0000000203C2302022738206B
:103B800008F8888888700000203F202020110E004F
:103B9000C030080808083800071820202010080046
:103BA00008F808080810E000203F202020100F002F
:103BB00008F88888E8081000203F202023201800FB
:103BC00008F88888E8081000203F20000300000063
:103BD000C03008080838000007182020221E020004
:103BE00008F808000008F808203F210101213F20C3
:103BF000000808F8080800000020203F20200000EE
:103C000000000808F8080800C08080807F000000DD
:103C100008F888C028180800203F20012638200016
:103C200008F8080000000000203F2020202030007D
:103C300008F8F800F8F80800203F003F003F200097
:103C400008F830C00008F808203F200007183F009F
:103C5000E01008080810E0000F10202020100F00CE
:103C600008F808080808F000203F210101010000C1
:103C7000E01008080810E0000F18242438504F0006
:103C800008F8888888887000203F2000030C3020C6
:103C900000708808080838000038202121221C0004
:103CA000180808F8080818000000203F200000004D
:103CB00008F808000008F808001F202020201F0036
:103CC0000878880000C83808000007380E01000096
:103CD000F80800F80008F800033C0700073C030060
:103CE000081868808068180820302C03032C3020C6
:103CF0000838C800C83808000000203F2000000035
:103D000010080808C838080020382621202018008C
:103D1000000000FE020202000000007F4040400060
:103D2000000C30C000000000000000010638C00098
:103D300000020202FE000000004040407F00000040
:103D40000000040202020400000000000000000065
:103D50000000000000000000808080808080808063
:103D6000000202040000000000000000000000004B
:103D700000008080808000000019242222223F2041
:103D800008F8008080000000003F112020110E0084
:103D90000000008080800000000E11202020110013
:103DA000000000808088F800000E112020103F20C5
:103DB0000000808080800000001F22222222130049
:103DC000008080F0888888180020203F2020000094
:103DD0000000808080808000006B94949493600049
:103DE00008F8008080800000203F210000203F2054
:103DF00000809898000000000020203F2020000054
:103E0000000000809898000000C08080807F000043
:103E100008F8000080808000203F24022D30200020
:103E2000000808F8000000000020203F20200000CB
:103E30008080808080808000203F20003F20003FE5
:103E40008080008080800000203F210000203F20F3
:103E50000000808080800000001F202020201F00A4
:103E6000808000808000000080FFA12020110E00D3
:103E70000000008080808000000E112020A0FF80C4
:103E8000808080008080800020203F212000010071
:103E900000008080808080000033242424241900C6
:103EA000008080E0808000000000001F20200000D3
:103EB0008080000000808000001F202020103F2014
:103EC000808080000080808000010E3008060100A4
:103ED00080800080008080800F300C030C300F0049
:103EE00000808000808080000020312E0E31200074
:103EF000808080000080808080818E7018060100A4
:103F000000808080808080000021302C22213000C1
:103F100000000000807C020200000000003F4040E2
:103F200000000000FF00000000000000FF00000093
:103F30000002027C800000000040403F00000000C2
:103F4000000601010202040400000000000000005D
:103F500048656C6C6F20576F726C642100494E4647
:103F600000696E66004E414E006E616E003000309A
:103F700031323334353637383941424344454600CF
:103F800030313233343536373839616263646566CF
:103F900000496E66696E697479004E614E00524543
:103FA000454E54206D616C6C6F632073756363655F
:103FB00065646564002F646174612F6A656E6B6966
:103FC0006E732F776F726B73706163652F474E55F9
:103FD0002D746F6F6C636861696E2F61726D2D3126
:103FE000332F7372632F6E65776C69622D63796707
:103FF00077696E2F6E65776C69622F6C6962632FCB
:104000007374646C69622F64746F612E6300426123
:104010006C6C6F6320737563636565646564002F02
:10402000646174612F6A656E6B696E732F776F724E
:104030006B73706163652F474E552D746F6F6C63A2
:104040006861696E2F61726D2D31332F7372632F2A
:104050006E65776C69622D63796777696E2F6E651F
:10406000776C69622F6C6962632F7374646C696228
:104070002F6D707265632E63004300504F53495893
:10408000002E002C2066756E6374696F6E3A2000F6
:10409000617373657274696F6E20222573222066C6
:1040A00061696C65643A2066696C6520222573221B
:1040B0002C206C696E65202564257325730A002306
:1040C0002D302B2000686C4C006566674546470024
:1040D00005000000190000007D0000000000000045
:1040E0000080E03779C34143176E05B5B5B89346F4
:1040F000F5F93FE9034F384D321D30F94877825AC0
:104100003CBF737FDD4F1575000000000000F03FDD
:1041100000000000000024400000000000005940A2
:104120000000000000408F40000000000088C340F5
:1041300000000000006AF8400000000080842E416A
:1041400000000000D01263410000000084D79741B6
:104150000000000065CDCD41000000205FA00242BC
:10416000000000E876483742000000A2941A6D4231
:10417000000040E59C30A2420000901EC4BCD64224
:1041800000003426F56B0C430080E03779C34143CF
:1041900000A0D8855734764300C84E676DC1AB4345
:1041A000003D9160E458E143408CB5781DAF154463
:1041B00050EFE2D6E41A4B4492D54D06CFF080443E
:1041C000F64AE1C7022DB544B49DD9794378EA4453
:1041D00000202020202020202020282828282820D7
:1041E00020202020202020202020202020202020CF
:1041F0002088101010101010101010101010101037
:104200001004040404040404040404101010101026
:1042100010104141414141410101010101010101F0
:104220000101010101010101010101011010101042
:1042300010104242424242420202020202020202C2
:104240000202020202020202020202021010101016
:10425000200000000000000000000000000000003E
:10426000000000000000000000000000000000004E
:10427000000000000000000000000000000000003E
:10428000000000000000000000000000000000002E
:10429000000000000000000000000000000000001E
:1042A000000000000000000000000000000000000E
:1042B00000000000000000000000000000000000FE
:1042C00000000000000000000000000000000000EE
:0442D00000000000EA
:0842D4003CBEFF7F0100000069
:0442DC00B10A00081B
:0442E000890A00083F
:1042E4000000000003000000E40100201000002092
:1042F40000000000E40100204C020020B402002071
:1043040000000000000000000000000000000000A9
:104314000000000000000000000000000000000099
:104324000000000000000000000000000000000089
:104334000000000000000000000000004300000036
:104344000000000000000000000000000000000069
:104354000000000000000000000000004300000016
:104364000000000000000000000000000000000049
:1043740000000000000000000000000043000000F6
:104384000000000000000000000000000000000029
:1043940000000000000000000000000043000000D6
:1043A4000000000000000000000000000000000009
:1043B40000000000000000000000000043000000B6
:1043C40000000000000000000000000000000000E9
:1043D4000000000000000000000000004300000096
:1043E40000000000000000000000000000000000C9
:1043F4000000000000000000000000004300000076
:1044040000000000000000000000000000000000A8
:10441400000000000000000000000000213300083C
:10442400FD32000800000000D0410008814000086F
:10443400BE400008BE400008BE400008BE40000860
:10444400BE400008BE400008BE400008BE40000850
:10445400BE400008FFFFFFFFFFFFFFFFFFFFFFFF5E
:10446400FFFF0000010041534349490000000000E0
:104474000000000000000000000000000000000038
:1044840000000000000041534349490000000000BF
:104494000000000000000000000000000000000018
:0844A400000000000000000010
:0400000508000AD510
:00000001FF
